:100000000C942A000C9449000C946D000C949100FF
:100010000C9447000C9447000C9447000C94470044
:100020000C9447000C9447000C9447000C94470034
:100030000C9447000C9447000C9447000C94470024
:100040000C9447000C9447000C9447000C94470014
:100050000C94470011241FBECFE5D8E0DEBFCDBF12
:1000600010E0A0E6B0E0EAE5F3E002C005900D92F2
:10007000A838B107D9F720E0A8E8B0E001C01D9288
:10008000A838B207E1F70E9489010C94AB010C94E7
:1000900000001F920F920FB60F9211242F933F93DF
:1000A0004F935F936F937F938F939F93AF93BF9380
:1000B000EF93FF930E946B01FF91EF91BF91AF917E
:1000C0009F918F917F916F915F914F913F912F9170
:1000D0000F900FBE0F901F9018951F920F920FB6A2
:1000E0000F9211242F933F934F935F936F937F93BE
:1000F0008F939F93AF93BF93EF93FF930E947501EC
:10010000FF91EF91BF91AF919F918F917F916F91EF
:100110005F914F913F912F910F900FBE0F901F90C5
:1001200018951F920F920FB60F9211242F933F93A1
:100130004F935F936F937F938F939F93AF93BF93EF
:10014000EF93FF930E947F01FF91EF91BF91AF91D9
:100150009F918F917F916F915F914F913F912F91DF
:100160000F900FBE0F901F901895DA9A89EF90E0CC
:100170000197F1F700C00000DA9889EF90E001974D
:10018000F1F700C000000895CF93C82FD9988BB322
:100190008F709C2F907F892B8BBB0E94B5008BB3F7
:1001A000282F2F7030E1C39FC0011124822B8BBBFD
:1001B0000E94B50089EF90E00197F1F700C00000C0
:1001C000CF910895D19AD29A8AB3806F8ABB83E384
:1001D0000E94C40082E30E94C40088E20E94C4001E
:1001E0008CE00E94C40081E00E94C40080E80E946C
:1001F000C40089EF90E00197F1F700C00000089576
:10020000CF93C82FD99A8BB38F709C2F907F892B57
:100210008BBB0E94B5008BB3282F2F7030E1C39F9A
:10022000C0011124822B8BBB0E94B50089EF90E0A6
:100230000197F1F700C00000CF910895CF93DF93AD
:10024000EC018881882331F021960E940001899178
:100250008111FBCFDF91CF91089581E00E94C4000E
:1002600089EF90E00197F1F700C000000895613038
:1002700021F480580E94C4000895623021F4805413
:100280000E94C40008950E942D0140E650E060E005
:1002900081E00E944C010895CF93DF93EA010E9410
:1002A0003701CE010E941E01DF91CF910895813068
:1002B00041F018F0823051F0089585B3805885BB25
:1002C000089595B380E4892785BB089595B381E0AF
:1002D000892785BB089580E00E94570183ED90E354
:1002E0000197F1F700C00000089581E00E945701D6
:1002F00083ED90E30197F1F700C00000089582E0DC
:100300000E94570183ED90E30197F1F700C00000D0
:1003100008950E94E200C0E041E750E061E08C2FC8
:100320000E944C012FE986E891E0215080409040E6
:10033000E1F700C0000047E750E061E080E00E9484
:100340004C0183EC99E00197F1F700C00000CF5F0A
:0A035000C03111F7E0CFF894FFCFA1
:10035A00726F77203120616E642032206F6E6C7963
:10036A000068656C6C6F002020202020202020204F
:08037A0020202020202020009B
:00000001FF
