S01900004D794472697665727354656D706C6174652E737265632A
S11300000C942A000C9449000C946D000C949100FB
S11300100C9447000C9447000C9447000C94470040
S11300200C9447000C9447000C9447000C94470030
S11300300C9447000C9447000C9447000C94470020
S11300400C9447000C9447000C9447000C94470010
S11300500C94470011241FBECFE5D8E0DEBFCDBF0E
S113006010E0A0E6B0E0E4E2F2E002C005900D92F8
S1130070A036B107D9F720E0A0E6B0E001C01D9298
S1130080A036B207E1F70E94EC000C9410010C9426
S113009000001F920F920FB60F9211242F933F93DB
S11300A04F935F936F937F938F939F93AF93BF937C
S11300B0EF93FF930E94CE00FF91EF91BF91AF9118
S11300C09F918F917F916F915F914F913F912F916C
S11300D00F900FBE0F901F9018951F920F920FB69E
S11300E00F9211242F933F934F935F936F937F93BA
S11300F08F939F93AF93BF93EF93FF930E94D80086
S1130100FF91EF91BF91AF919F918F917F916F91EB
S11301105F914F913F912F910F900FBE0F901F90C1
S113012018951F920F920FB60F9211242F933F939D
S11301304F935F936F937F938F939F93AF93BF93EB
S1130140EF93FF930E94E200FF91EF91BF91AF9173
S11301509F918F917F916F915F914F913F912F91DB
S11301600F900FBE0F901F901895A09AA19AA29A73
S11301700895813049F018F0823059F0089595B30C
S113018081E0892785BB089595B382E0892785BBE3
S1130190089595B384E0892785BB089580E00E9483
S11301A0B90083ED90E30197F1F700C000000895D2
S11301B081E00E94B90083ED90E30197F1F700C05C
S11301C00000089582E00E94B90083ED90E3019756
S11301D0F1F700C0000008950E94B50080E00E947D
S11301E0B9008FE493EC0197F1F700C0000080E0C0
S11301F00E94B900C1E0D0E002C0C0E0D0E08C2F82
S11302000E94B9008FE493EC0197F1F700C000005D
S11302108C2F0E94B9002196C330D10581F7EDCF10
S1070220F894FFCF7C
S9030000FC
